:020000020000FC
:0200000078C0C6
:0200040018954D
:02000800189549
:02000C00189545
:02001000189541
:0200140018953D
:02001800189539
:02001C00189535
:02002000189531
:0200240018952D
:02002800189529
:02002C00189525
:02003000189521
:0200340018951D
:020038001CC0EA
:02003C00189515
:0200400013C0EB
:0200440018950D
:0200480015C0E1
:02004C00189505
:020050001EC0D0
:020054001895FD
:020058001895F9
:02005C001895F5
:020060001895F1
:020064001895ED
:100068000F9300E807BD0F9118951895A090C00050
:100078000091C00004FF0091C600AFEF0A27F02EE0
:100088000E94BC0018950091C00005FD0093C600B1
:1000980018950FEF0DBF04E00EBFE0E0F1E0002778
:1000A8000193F430E9F7EF3FD9F7EE27FF27002453
:1000B80011242224332444245524662477248824B4
:1000C8009924AA24BB24CC24DD24EE24FF24002771
:1000D800112722273327442755276627772788277C
:1000E8009927AA27BB27CC27DD270F9300E0009389
:1000F800C5000F910F9309E10093C4000F910F936E
:1001080008ED0093C1000F910F9306E00093C20021
:100118000F910F9300E40AB90F910F9303E0009336
:100128006E000F910F9300E807BD0F910F9303E83E
:1001380004BD0F910F9301E005BD0F9178940E94C3
:10014800B4000F9300E001BD0F910F9300E002BDD2
:100158000F910E94CA00FF240E94D5000C94A300AE
:1001680010E334E0FF24131B12F0F394FCCF08953E
:100178000091C00005FFFCCFF092C60008950091E1
:10018800C00007FFFCCFF090C6000895F894F999D5
:10019800FDCFF0BCFA9AF99AF99AF99AF99A7894F3
:0C01A8000895F999FECFF89AF0B408957C
:00000001FF
