:020000020000FC
:0200000049C0F5
:0200040018954D
:02000800189549
:02000C00189545
:02001000189541
:0200140018953D
:02001800189539
:02001C00189535
:02002000189531
:0200240018952D
:02002800189529
:02002C00189525
:02003000189521
:0200340018951D
:02003800189519
:02003C00189515
:02004000189511
:020044001EC0DC
:020048000FC0E7
:02004C00189505
:02005000189501
:020054001895FD
:020058001895F9
:02005C001895F5
:020060001895F1
:020064001895ED
:10006800A6ECB0E08C9105B10B7F05B98EBD0F935E
:1000780000E00093C1000F91189505B1046005B91F
:100088000F9300E90093C1000F9118950FEF0DBF72
:1000980004E00EBFE0E0F1E000270193F430E9F757
:1000A800EF3FD9F7EE27FF27002411242224332419
:1000B800442455246624772488249924AA24BB241C
:1000C800CC24DD24EE24FF24002711272227332700
:1000D800442755276627772788279927AA27BB27E4
:1000E800CC27DD270F9300E00093C0000F910F93FA
:1000F80006E00093C2000F910F9307E60093C40037
:100108000F910F9300E90093C1000F910F9302ED37
:100118000CBD0F910F930CE204B90F910F930CE3F0
:0A01280005B90F9178940C9497002C
:00000001FF
