:020000020000FC
:0200000045C0F9
:0200040018954D
:02000800189549
:02000C00189545
:02001000189541
:0200140018953D
:02001800189539
:02001C00189535
:02002000189531
:0200240018952D
:02002800189529
:02002C00189525
:02003000189521
:0200340018951D
:02003800189519
:02003C00189515
:02004000189511
:0200440018950D
:02004800189509
:02004C00189505
:02005000189501
:0200540009C0E1
:020058001895F9
:02005C001895F5
:020060001895F1
:020064001895ED
:100068000F930FB70F93A8E7B0E02C91A9E7B0E082
:100078003C910F9308EC00937A000F910F910FBFFA
:100088000F9118950FEF0DBF04E00EBFE0E0F1E00F
:1000980000270193F430E9F7EF3FD9F7EE27FF2760
:1000A800002411242224332444245524662477244C
:1000B80088249924AA24BB24CC24DD24EE24FF24FC
:1000C8000027112722273327442755276627772714
:1000D80088279927AA27BB27CC27DD270F9300EC71
:1000E80000937C000F910F9300E400937B000F9125
:1000F8000F9308EC00937A000F91789400000C9409
:0E0108008200AAE7B0E04C9140644C93089549
:00000001FF
