:020000020000FC
:0200000044C0FA
:0200040018954D
:02000800189549
:02000C00189545
:02001000189541
:0200140018953D
:02001800189539
:02001C00189535
:02002000189531
:0200240018952D
:02002800189529
:02002C00189525
:02003000189521
:0200340018951D
:02003800189519
:02003C00189515
:02004000189511
:0200440018950D
:02004800189509
:02004C00189505
:02005000189501
:0200540009C0E1
:020058001895F9
:02005C001895F5
:020060001895F1
:020064001895ED
:100068000FB70F93A8E7B0E02C91A9E7B0E03C9157
:10007800AAE7B0E04C9140644C9308950F910FBFEC
:1000880018950FEF0DBF04E00EBFE0E0F1E0002788
:100098000193F430E9F7EF3FD9F7EE27FF27002463
:1000A80011242224332444245524662477248824C4
:1000B8009924AA24BB24CC24DD24EE24FF24002781
:1000C800112722273327442755276627772788278C
:1000D8009927AA27BB27CC27DD2700E0ACE7B0E0AB
:1000E8000C9308E8AAE7B0E00C93AAE7B0E04C91BB
:1000F80040644C93789400000C947F00AAE7B0E029
:080108004C9140644C930895F2
:00000001FF
