:020000020000FC
:0200000038C006
:0200040018954D
:02000800189549
:02000C00189545
:02001000189541
:0200140018953D
:02001800189539
:02001C00189535
:02002000189531
:0200240018952D
:02002800189529
:02002C00189525
:02003000189521
:0200340018951D
:02003800189519
:02003C00189515
:02004000189511
:0200440018950D
:02004800189509
:02004C00189505
:02005000189501
:020054001895FD
:020058001895F9
:02005C001895F5
:020060001895F1
:020064001895ED
:100068000C0D040520075A8602570FEF0DBF04E058
:100078000EBFE0E0F1E000270193F430E9F7EF3F2D
:10008800D9F7EE27FF2700241124222433244424FF
:1000980055246624772488249924AA24BB24CC24B4
:1000A800DD24EE24FF2400271127222733274427A5
:1000B80055276627772788279927AA27BB27CC277C
:1000C800DD2703E30093C40000E00093C00008E1CB
:1000D8000093C10006E40093C2006AE0E8E6F0E09D
:1000E800C0E0D1E00F92059009926A95E1F70F9070
:1000F80001C0FECFA0ECB0E00C9105FFFBCF04E0FF
:060108000093C6000895FB
:00000001FF
