:020000020000FC
:0200000035C009
:0200040018954D
:02000800189549
:02000C00189545
:02001000189541
:0200140018953D
:02001800189539
:02001C00189535
:02002000189531
:0200240021C0F9
:02002800189529
:02002C00189525
:02003000189521
:0200340018951D
:02003800189519
:02003C00189515
:02004000189511
:0200440018950D
:02004800189509
:02004C00189505
:02005000189501
:020054001895FD
:020058001895F9
:02005C001895F5
:020060001895F1
:020064001895ED
:10006800039418950FEF0DBF04E00EBFE0E0F1E038
:1000780000270193F430E9F7EF3FD9F7EE27FF2780
:10008800002411242224332444245524662477246C
:1000980088249924AA24BB24CC24DD24EE24FF241C
:1000A8000027112722273327442755276627772734
:1000B80088279927AA27BB27CC27DD2701E00093AB
:0E00C800700001E00093B00078940C94690081
:00000001FF
