:020000020000FC
:020000006FC0CF
:0200040018954D
:02000800189549
:02000C00189545
:02001000189541
:0200140018953D
:02001800189539
:02001C00189535
:02002000189531
:0200240018952D
:02002800189529
:02002C00189525
:02003000189521
:0200340018951D
:02003800189519
:02003C00189515
:0200400013C0EB
:0200440018950D
:02004800189509
:02004C00189505
:02005000189501
:020054001895FD
:020058001895F9
:02005C001895F5
:020060001895F1
:020064001895ED
:10006800560F471F4E3159F4543849F40BB1032742
:100078000BB940E050E00F9300E006BD0F911895D2
:100088000FEF0DBF04E00EBFE0E0F1E000270193A1
:10009800F430E9F7EF3FD9F7EE27FF2700241124C2
:1000A800222433244424552466247724882499243C
:1000B800AA24BB24CC24DD24EE24FF240027112706
:1000C8002227332744275527662777278827992704
:1000D800AA27BB27CC27DD270F9300E40AB90F9185
:1000E8000F9300E409B90F910F9300E40BB90F9136
:1000F8000F9301E005BD0F91AEE6B0E001E00C936F
:100108004EE154E861E070E030E4789400000C942B
:020118008A005B
:00000001FF
