:020000020000FC
:0200000062C0DC
:0200040018954D
:02000800189549
:02000C00189545
:02001000189541
:0200140018953D
:02001800189539
:02001C00189535
:02002000189531
:0200240018952D
:02002800189529
:02002C00189525
:02003000189521
:0200340018951D
:02003800189519
:02003C00189515
:02004000189511
:0200440018950D
:0200480016C0E0
:02004C000DC0E5
:0200500031C0BD
:020054001895FD
:020058001895F9
:02005C001895F5
:020060001895F1
:020064001895ED
:10006800A6ECB0E08C9308E40093C10018951394B3
:10007800A6ECB0E08C919395913039F0C0E0D1E0D6
:10008800C70FD01D888390E00AC0893010F0782F00
:100098000CC0C0E0D1E0C80FD01D88819927A6EC1C
:1000A800B0E08C9308E20093C100189500E9009332
:1000B800C10018950C0D040520075A8602570FEF4A
:1000C8000DBF04E00EBFE0E0F1E000270193F4303B
:1000D800E9F7EF3FD9F7EE27FF2700241124222460
:1000E8003324442455246624772488249924AA2474
:1000F800BB24CC24DD24EE24FF240027112722274B
:100108003327442755276627772788279927AA273B
:10011800BB27CC27DD276AE0ECEBF0E0C0E0D1E0BC
:100128000F92059009926A95E1F70F9000E000930D
:10013800C00006E00093C20007E60093C40000E98F
:0E0148000093C1007894000000000000FCCF7E
:00000001FF
