:020000020000FC
:0200000061C0DD
:0200040018954D
:02000800189549
:02000C00189545
:02001000189541
:0200140018953D
:02001800189539
:02001C00189535
:02002000189531
:0200240018952D
:02002800189529
:02002C00189525
:02003000189521
:0200340018951D
:02003800189519
:02003C00189515
:02004000189511
:0200440018950D
:02004800189509
:02004C00189505
:02005000189501
:020054001895FD
:020058001895F9
:02005C001895F5
:020060001895F1
:020064001895ED
:10006800A6ECB0E08C9308E4A1ECB0E00C931895F2
:10007800A6ECB0E08C919395913039F0C0E0D1E0D6
:10008800C70FD01D888390E00EC0893010F0782FFC
:100098000AC0C0E0D1E0C80FD01D888190E008E216
:1000A800A1ECB0E00C93189500E9A1ECB0E00C933A
:1000B80018950C0D040520075A8602570FEF0DBF3F
:1000C80004E00EBFE0E0F1E000270193F430E9F727
:1000D800EF3FD9F7EE27FF270024112422243324E9
:1000E800442455246624772488249924AA24BB24EC
:1000F800CC24DD24EE24FF240027112722273327D0
:10010800442755276627772788279927AA27BB27B3
:10011800CC27DD2706E0A2ECB0E00C9307E6A4ECC0
:10012800B0E00C9300E9A1ECB0E00C936AE0EAEBD4
:10013800F0E0C0E0D1E00F92059009926A95E1F7EE
:040148000F90FFCF46
:00000001FF
