:020000020000FC
:0200000049C0F5
:0200040018954D
:02000800189549
:02000C00189545
:02001000189541
:0200140018953D
:02001800189539
:02001C00189535
:02002000189531
:0200240018952D
:02002800189529
:02002C00189525
:02003000189521
:0200340018951D
:02003800189519
:02003C00189515
:02004000189511
:0200440011C0E9
:02004800189509
:02004C001AC0D8
:0200500012C0DC
:020054001895FD
:020058001895F9
:02005C001895F5
:020060001895F1
:020064001895ED
:100068008EB50F9308E20093C1000F9118950F9376
:1000780000E00093C1000F911895A6ECB0E08C93B6
:100088000F9308E40093C1000F9118950FEF0DBF6F
:1000980004E00EBFE0E0F1E000270193F430E9F757
:1000A800EF3FD9F7EE27FF27002411242224332419
:1000B800442455246624772488249924AA24BB241C
:1000C800CC24DD24EE24FF24002711272227332700
:1000D800442755276627772788279927AA27BB27E4
:1000E800CC27DD270F9306E00093C2000F910F93F2
:1000F80007E60093C4000F910F9300E90093C10035
:100108000F910F9302EC0CBD0F910F9300E304B90C
:100118000F910F930CE305B90F9178940C9492000A
:00000001FF
