:020000020000FC
:0200000039C005
:0200040018954D
:02000800189549
:02000C00189545
:02001000189541
:0200140018953D
:02001800189539
:02001C00189535
:02002000189531
:0200240018952D
:02002800189529
:02002C00189525
:02003000189521
:0200340018951D
:02003800189519
:02003C00189515
:02004000189511
:0200440018950D
:02004800189509
:02004C00189505
:02005000189501
:020054001895FD
:020058001895F9
:02005C001895F5
:020060001895F1
:020064001895ED
:100068003132333435363738392A30230FEF0DBF64
:1000780004E00EBFE0E0F1E000270193F430E9F777
:10008800EF3FD9F7EE27FF27002411242224332439
:10009800442455246624772488249924AA24BB243C
:1000A800CC24DD24EE24FF24002711272227332720
:1000B800442755276627772788279927AA27BB2704
:1000C800CC27DD276CE0E8E6F0E0C0E0D1E00F9255
:1000D800059009926A95E1F70F900F930FE00AB91E
:1000E8000F910F9300E105BF0F9178940E947E0055
:1000F8000C947A0011E0882731E077271BB926B1E4
:10010800231749F0330F73957330C9F7110F83958F
:10011800843091F70895A0E0B1E063E0689FA00102
:0A012800470FA40FB31DAC90F5CFF4
:00000001FF
